:1000000010C022C022C020C01FC01EC01DC01CC006
:100010001BC01AC019C018C017C016C015C014C024
:1000200013C011241FBECFE5D1E0DEBFCDBF10E06D
:10003000A0E6B0E0E6E8F0E002C005900D92A03640
:10004000B107D9F710D01DC0DBCF1F920F920FB6AA
:100050000F9211248F9384E08BBB8F910F900FBE72
:100060000F901F9018958AB38C608ABB8BB3836006
:100070008BBB82B3836082BB8BB781608BBF78946C
:06008000FFCFF894FFCF52
:00000001FF
