:1000000010C022C021C020C01FC01EC01DC01CC007
:100010001BC01AC019C018C017C016C015C014C024
:1000200013C011241FBECFE5D1E0DEBFCDBF10E06D
:10003000A0E6B0E0E2E5F1E002C005900D92A23644
:10004000B107D9F781D083C0DBCF07C0E9EFF0E07B
:100050003197F1F700C0000001970097B9F70895B4
:1000600028B3246028BBF1DF88B388BB0895C99BFF
:100070001FC08091600090916100853F21E0920750
:1000800054F084569109909361008093600084E657
:1000900090E0E6DF10C084E690E0E2DF83ED90E3DD
:1000A0000197F1F700C0000084E690E0D9DF03C0BB
:1000B00084E690E0D5DFC89B1FC0809160009091DE
:1000C0006100883B2BE0920754F48C599F4F90932A
:1000D00061008093600084E690E0C2DF089584E6CA
:1000E00090E0BEDF83ED90E30197F1F700C00000E0
:1000F00084E690E0B5DF089584E690E0B1DF0895EE
:10010000CF9388B3C3E08C2788BB80916000909127
:1001100061009BDFACDF88B3C827C8BB809160005B
:100120009091610092DFA3DFCF9108951ABA8FEF0B
:1001300087BB8BBB18BACA99FECF88EE93E090DFDD
:1001400088B3816088BB0895F1DFDADFFECFF894D1
:02015000FFCFDF
:02015200E803C0
:00000001FF
